:100000000C9456000C9473000C9473000C947300C1
:100010000C9473000C9473000C9473000C94730094
:100020000C9473000C9473000C9473000C94730084
:100030000C9475000C9473000C9473000C94730072
:100040000C9473000C9473000C9473000C94730064
:100050000C9473000C9473000C9473000C94730054
:100060000C9473000C9473000C9473000C94730044
:100070000C9473000C9473000C9473000C94730034
:100080000C9473000C9473000C9473000C94730024
:100090000C9473000C9473000C9473000C94730014
:1000A0000C9473000C9473000C94730011241FBE05
:1000B000CFEFCDBFD7E2DEBF10E2A0E0B0E2E6E1D5
:1000C000F6E102C005900D92AA35B107D9F726E2F4
:1000D000AAE5B0E201C01D92A136B207E1F70E9485
:1000E00044080C94090B0C9400001F920F920FB659
:1000F0000F9211246F927F928F929F92AF92BF9234
:10010000CF92DF92EF92FF920F931F932F933F9323
:100110004F935F936F937F938F939F93AF93BF930F
:10012000EF93FF93CF93DF9300D000D0CDB7DEB72E
:1001300080E098E021E020930C0820910620309187
:100140000720232B49F4809318039093190380937D
:100150001A0390931B03A0C080915C2090915D20B6
:10016000892B59F080915C2090915D20019751F48A
:100170006EE5662E62E2762E09C05EE5652E54E2DB
:10018000752E04C04EE5642E40E2742E00915A2074
:1001900010915B208090002090900120A090022080
:1001A000B0900320E0915A20F0915B202091002034
:1001B0003091012040910220509103203196EE0FA2
:1001C000FF1FE60DF71D60817181882777FD8095FF
:1001D000982F70588F4F9F4F29833A834B835C83AE
:1001E0000E94950929813A814B815C810E94F9091D
:1001F0000E9467096B017C01F801EE0FFF1FE60DFD
:10020000F71D60817181882777FD8095982F705840
:100210008F4F9F4F0E949509A50194010E94F909F3
:100220000E94670924E0769567952A95E1F7609327
:1002300018037093190334E0D694C7943A95E1F704
:10024000C0921A03D0921B0380915A2090915B2098
:10025000029680935A2090935B2080915A2090912F
:100260005B208F3F9105C1F0BCF010925A20109294
:100270005B2080915C2090915D20019663E070E0AE
:100280000E94030980935C2090935D2081E090E0C0
:1002900080930420909305202496CDBFDEBFDF918C
:1002A000CF91FF91EF91BF91AF919F918F917F91EE
:1002B0006F915F914F913F912F911F910F91FF90FF
:1002C000EF90DF90CF90BF90AF909F908F907F90F6
:1002D0006F900F900FBE0F901F9018950E94D20A3A
:1002E00066E070E00E940309009719F48CE090E248
:1002F0001CC08130910519F488E190E216C082306B
:10030000910519F482E290E210C08330910519F44E
:100310008FE290E20AC08430910519F48FE390E2F5
:1003200004C0059721F480E590E20C94A1030895A0
:100330000F931F93E0915E26F0915F269C0122505F
:10034000310946815781425051092417350768F415
:10035000A281B0E00E94390900891189228933897C
:10036000600F711F821F931F03C060E070E0CB011C
:100370001F910F910895CF93DF93EC01E0915E26DA
:10038000F0915F26188219828C819D8181309105C0
:10039000B9F0268137818217930790F48E839F836B
:1003A000009719F00E94980104C0648575858685C0
:1003B0009785688779878A879B8780E090E002C06D
:1003C00081E090E0DF91CF9108950F931F93CF9339
:1003D000DF9300D000D0CDB7DEB7E0915E26F0917C
:1003E0005F268230910528F1268137818217930795
:1003F00000F520812230E9F49C013327220F331FBE
:10040000892F99274085518562857385480F591F2B
:10041000611D711D02E010E0CE0101960E94EE0701
:10042000892B39F48A8190E0982F88272981822BA3
:1004300002C081E090E02496CDBFDEBFDF91CF9176
:100440001F910F910895CF92DF92EF92FF920F9339
:100450001F93CF93DF93EC016A017B0102E010E070
:100460002EEF31E00E94EE07892B01F5898190E0A3
:10047000982F88272881822B85359A4AC9F426E34C
:1004800030E0B701A601CE010E94EE07892B61F48E
:10049000298130E0322F22278881282B81E02634E1
:1004A000314439F480E005C081E003C083E001C03D
:1004B00082E0DF91CF911F910F91FF90EF90DF903D
:1004C000CF9008954F925F926F927F92AF92BF92BA
:1004D000CF92DF92EF92FF920F931F93CF93DF9310
:1004E000CDB7DEB7A897CDBFDEBF5C0110925E2608
:1004F00010925F260E94360780FD0FC140E050E059
:10050000BA01CE0101960E942302813091F500E1EB
:1005100010E02EEB31E040E050E0BA01CE01019650
:100520000E94EE07892B19F081E090E0F8C08D81E0
:10053000811103C086E090E0F2C08C854B84512C81
:10054000612C712C320155244424782A8985482A4B
:100550008A8590E0982F8827A0E0B0E0482A592AA1
:100560006A2A7B2AB301A201CE0101960E942302CE
:1005700003C0412C512C32018330B1F28111DACF0A
:1005800004E210E02DE030E0B301A201CE010196BB
:100590000E94EE07892B41F62B8530E0322F22276F
:1005A0008A85282B40E050E0211531054105510591
:1005B000A9F48B8D2A8D422F50E060E070E0332744
:1005C0002227582B888D282B898D90E0982F8827FB
:1005D000A0E0B0E0282B392B4A2B5B2BAC81B0E09C
:1005E0000E9448096DA37EA38FA398A70B8110E0FA
:1005F000102F00278A81082B20E030E0400E511E8A
:10060000621E731ED50118964D925D926D927C927A
:100610001B97E9811296EC931297CE80D12CDC2C9B
:10062000CC248D81C82A1496CD92DC9215978885AA
:1006300090E0982F88274F81842BA0E0B0E00097AE
:10064000A105B105A9F44F898E8990E0A0E0B0E042
:10065000DC0199278827B42B4C89842B4D8950E0E5
:10066000542F442760E070E0842B952BA62BB72BEA
:10067000F4E0D694C794FA95E1F7E12CF12CBC0193
:10068000CD01601B710B820B930B2DA13EA14FA1DD
:1006900058A5621B730B840B950B6C197D098E0991
:1006A0009F092E2F30E040E050E00E941709DA0148
:1006B000C9010296A11DB11DF50186839783DA0158
:1006C000C901865F9F40A109B1098F3F9F4EA105D7
:1006D000B10508F02FCF82E0D5018C932DA13EA16A
:1006E0004FA158A5420E531E641E751E1C964D92B6
:1006F0005D926D927C921F974C0C5D1C6E1C7F1C52
:10070000F501408A518A628A738A1182A0925E261C
:10071000B0925F2680E090E002C082E090E0A89670
:10072000CDBFDEBFDF91CF911F910F91FF90EF9072
:10073000DF90CF90BF90AF907F906F905F904F9081
:1007400008957F928F929F92AF92BF92CF92DF9245
:10075000EF92FF920F931F93CF93DF93CDB7DEB746
:10076000E897CDBFDEBFC0905E26D0905F26C11453
:10077000D10409F411C1D60111961C929E012F5D7E
:100780003F4F2FA738AB9C017901F90180812F5F82
:100790003F4F8032C9F38F3209F4790119AA1AAA9E
:1007A000D7018C91803248F4CE018D960E94BB0116
:1007B0001982009709F4BDC00AC1A0E27A2E4E0149
:1007C000BCE08B0E911CEFA5F8A9DF01CF010B96C1
:1007D000A817B90711F07D92FBCF80E090E028E0E8
:1007E00031E0390FD701A90FB11D9C91913270F002
:1007F0009F3261F09E3209F4D4C0821738F4DF01D1
:10080000A80FB11D9C938F5F932FEACFE30EF11CCD
:1008100081E0913208F080E08387CE018D960E94BE
:10082000BB01009709F0D3C02DA53EA52F7033273B
:10083000F5E0220F331FFA95E1F74DA95EA96FA9E4
:1008400078AD00E210E0CE0101960E94EE07892B00
:1008500009F0B8C08981882309F4B7C02C8523FD2D
:100860000FC06FA578A9FE013196CB01E815F905F7
:1008700009F45BC04191DC013D91CD014317B1F317
:10088000A0905E26B0905F260DA51EA50F5F1F4F9E
:100890000115110509F499C08DA99EA9AFA9B8AD9C
:1008A0000097A105B10509F490C098012F70332776
:1008B000232BC1F50196A11DB11D8DAB9EABAFAB36
:1008C000B8AF8BA99CA9009741F4F501848195816B
:1008D0000817190708F079C025C0D50112962C9188
:1008E00030E021503109A801E4E056954795EA959A
:1008F000E1F724233523232BA9F40E94E50182305C
:10090000910508F45FC0F5012681378182179307AE
:1009100008F05BC08BAB9CAB0E9498016DAB7EABCB
:100920008FAB98AF0DA71EA77FCFFB0183858823D0
:10093000F1F18981882399F18C8584FD30C08C8DFB
:1009400090E0982F88272B8D822BD6015C968D9373
:100950009C935D9728A18F8D90E0A0E0B0E0DC0132
:1009600099278827B22B2D8D822B4E8D50E0542F46
:10097000442760E070E0842B952BA62BB72BF60163
:10098000808F918FA28FB38F148A158A168A178A47
:1009900081E0818380E001C085E090E018C083E0C1
:1009A000FCCF283009F032CF88E02BE02DCF24FF98
:1009B0000CC08C8D90E0982F88272B8D822B89ABD3
:1009C0009AAB01CF81E090E002C083E090E0E8962E
:1009D000CDBFDEBFDF91CF911F910F91FF90EF90C0
:1009E000DF90CF90BF90AF909F908F907F900895B1
:1009F0004F925F926F927F928F929F92AF92BF922F
:100A0000CF92DF92EF92FF920F931F93CF93DF93DA
:100A10004C017B015A01C0915E26D0915F26FA01FC
:100A200010821182209709F497C0898180FF97C0B6
:100A3000888D998DAA8DBB8D4C895D896E897F8942
:100A4000841B950BA60BB70BA70160E070E0841721
:100A50009507A607B70708F47C013401412C02E092
:100A6000502EE114F10409F474C08C899D89AE897B
:100A7000BF89AC01BD01517066277727452B462BF6
:100A8000472B81F5DA80DA94AC01BD0119E0769547
:100A90006795579547951A95D1F7D42281F4892BFC
:100AA0008A2B8B2B19F48C8D9D8D04C08E8D9F8D80
:100AB0000E94E5018230910580F18E8F9F8F8E8D8F
:100AC0009F8D0E949801611571058105910529F19D
:100AD000DC01CB018D0D911DA11DB11D88A399A332
:100AE000AAA3BBA32C893D893170C201821B930B41
:100AF00067018E159F0508F46C0148A159A16AA1F0
:100B00007BA18114910419F480E090E001C0C3013D
:100B100086010E94EE07892B21F0198281E090E086
:100B200020C08C899D89AE89BF898C0D9D1DA11D1A
:100B3000B11D8C8B9D8BAE8BBF8B6C0C7D1CEC1810
:100B4000FD08F501808191818C0D9D1D808391832D
:100B500088CF80E090E005C085E090E002C084E0AE
:100B600090E0DF91CF911F910F91FF90EF90DF9078
:100B7000CF90BF90AF909F908F907F906F905F903D
:100B80004F9008954F925F926F927F928F929F92B3
:100B9000AF92BF92CF92DF92EF92FF920F931F938B
:100BA000CF93DF9300D000D0CDB7DEB79B0100918B
:100BB0005E2610915F260115110509F4D8C0D801F1
:100BC00011964C91119740FFD5C058964D915D916B
:100BD0006D917C915B9769017C014C155D056E05FB
:100BE0007F0510F46A017B01F80144885588668806
:100BF0007788148A158A168A178AC114D104E104E9
:100C0000F10409F4BAC08280912CA12CB12C39E0F6
:100C1000880C991CAA1CBB1C3A95D1F741145104AD
:100C200061047104C9F1B1E04B1A510861087108FF
:100C3000C701B6016150710981099109A5019401AB
:100C40000E94170929833A834B835C83C301B20155
:100C5000A50194010E94170989819A81AB81BC8109
:100C600082179307A407B507B8F088279927DC01F6
:100C700088199909AA09BB0984219521A621B721C0
:100C8000F801848B958BA68BB78BC81AD90AEA0A10
:100C9000FB0A868D978D28C0D8015C968D919C911A
:100CA0005D975E968D939C935F971EC00E94E501B1
:100CB00082309105F8F0F801268137818217930779
:100CC000C8F4F801868F978F44895589668977899A
:100CD000480D591D6A1D7B1D448B558B668B778B88
:100CE000C818D908EA08FB088C149D04AE04BF0498
:100CF000E8F204C0D80111961C9216C0F80184884D
:100D00009588A688B7888C0C9D1CAE1CBF1C848A55
:100D1000958AA68AB78A0E94980161157105810596
:100D2000910529F4F801118281E090E028C029E0C2
:100D3000B694A794979487942A95D1F7D8011296E0
:100D4000CC90D12CB1E0CB1AD108EE24D7FCE094A2
:100D5000FE2C8C209D20AE20BF20860E971EA81E44
:100D6000B91EF80180A291A2A2A2B3A206C085E09A
:100D700090E005C084E090E002C080E090E024961E
:100D8000CDBFDEBFDF91CF911F910F91FF90EF900C
:100D9000DF90CF90BF90AF909F908F907F906F909B
:100DA0005F904F900895E0E4F6E080EB818388E166
:100DB000868BE0EEF8E080E1808384E084838081AC
:100DC0008064808308958093E3088091E20887FF20
:100DD000FCCF8091E30808958FEF0C94E306EF9227
:100DE000FF920F931F93CF93DF93C82F142F052FDC
:100DF000F62EE72E87FF09C040E050E0BA0187E7F2
:100E00000E94EF06823058F5CF77D0E1D0934506A7
:100E10000E94EC06D09346060E94EC068C2F0E949E
:100E2000E3068E2D0E94E3068F2D0E94E306802F9D
:100E30000E94E306812F0E94E306C03421F0C834EB
:100E400021F081E003C085E901C087E80E94E30644
:100E5000CAE00E94EC0687FF02C0C150D1F7DF91C3
:100E6000CF911F910F91FF90EF900895EF92FF9215
:100E70000F931F93CF93DF93CDB7DEB72597CDBFE9
:100E8000DEBF0E94D30680E1809345061AE00E94EF
:100E9000EC061150E1F740E050E0BA0180E40E9416
:100EA000EF06813009F067C04AEA51E060E070E087
:100EB00088E40E94EF06813079F57E0185E0E80E36
:100EC000F11C8E010F5F1F4F0E94EC06F801819309
:100ED0008F01EE15FF05C1F78B81813009F04BC002
:100EE0008C818A3A09F047C000E117E240E050E007
:100EF00060E070E489EE0E94EF06882309F448C0A0
:100F000087EC90E00197F1F700C000000150110953
:100F10000115110559F72FC040E050E0BA0189EEE4
:100F20000E94EF06823020F492E0F92E99EE03C081
:100F3000FF24F39491E400E117E240E050E0BA01AD
:100F4000892F9D830E94EF069D81882361F0E7EC45
:100F5000F0E03197F1F700C00000015011090115D0
:100F6000110559F708C040E052E060E070E080E50C
:100F70000E94EF068111F12CF092602680E18093AF
:100F800045060E94EC0681E0FF20F1F080E01CC0E5
:100F900040E050E0BA018AE70E94EF068111EBCFF2
:100FA0008E010F5F1F4F0E94EC06F80181938F01A5
:100FB000EE15FF05C1F7898186FF03C02CE0F22EF4
:100FC000DBCF84E0F82ED8CF2596CDBFDEBFDF91F2
:100FD000CF911F910F91FF90EF900895CF92DF92E4
:100FE000EF92FF920F931F93CF93DF93EC01790160
:100FF0008091602683FD07C0E9E0440F551F661FFE
:10100000771FEA95D1F781E50E94EF06882319F052
:10101000C1E0D0E02AC00E94EC068F3FE1F38E3F92
:10102000B9F732E0C32EDC2CC01AD10ACE18DF0883
:10103000E114F10431F00E94EC0681E0E81AF108B5
:10104000F7CF209741F00E94EC06899301501109D7
:1010500001151105C1F70E94EC0681E0C81AD108FC
:10106000C114D104C1F7C0E0D0E080E1809345060F
:101070000E94EC06CE01DF91CF911F910F91FF905E
:10108000EF90DF90CF900895CF93DF93CDB7DEB789
:10109000A697CDBFDEBF82E08093500080915100C3
:1010A00081FFFCCF88ED84BF11E0109340008DE0FC
:1010B0008093000380E48093010388E0809302031F
:1010C000CE0101960E946202892B09F0FFCF0E9497
:1010D0006E01AE014B5D5F4F60E072E08EE594E221
:1010E0000E94F804AE014B5D5F4F60E072E08EE558
:1010F00092E20E94F80481E090E0809306209093B1
:10110000072086ED92E0809326089093270810939D
:10111000060882E0809300088091A200816080939D
:10112000A200789400E018E0C12CD12C70E8E72EE2
:101130007FE3F72EAA24A394B12C8091680683FF45
:1011400013C08091062090910720892B81F5C092D1
:101150000020D0920120E0920220F0920320A09281
:101160000620B092072023C02FEF83ED90E321509B
:1011700080409040E1F700C000008091680683FD48
:1011800016C0109206201092072010920020109294
:101190000120109202201092032000931803109354
:1011A000190300931A0310931B030E946E01809190
:1011B000042090910520892B09F4BFCF80915C20F9
:1011C00090915D20892B41F4AE014B5D5F4F60E053
:1011D00072E08EE590E210C080915C2090915D20DD
:1011E000AE014B5D5F4F60E072E0019719F48EE550
:1011F00094E202C08EE592E20E94F804109204206C
:10120000109205209ACF97FB072E16F4009407D072
:1012100077FD09D00E94530907FC05D03EF4909554
:1012200081959F4F0895709561957F4F0895A1E234
:101230001A2EAA1BBB1BFD010DC0AA1FBB1FEE1F50
:10124000FF1FA217B307E407F50720F0A21BB30B9B
:10125000E40BF50B661F771F881F991F1A9469F717
:1012600060957095809590959B01AC01BD01CF0173
:101270000895A29FB001B39FC001A39F700D811D6F
:101280001124911DB29F700D811D1124911D08958F
:101290000E943909A59F900DB49F900DA49F800DC9
:1012A000911D11240895AA1BBB1B51E107C0AA1F61
:1012B000BB1FA617B70710F0A61BB70B881F991FF7
:1012C0005A95A9F780959095BC01CD01089570D0ED
:1012D00088F09F5790F0B92F9927B751A0F0D1F01F
:1012E000660F771F881F991F1AF0BA95C9F712C0A9
:1012F000B13081F077D0B1E0089574C0672F782FB6
:101300008827B85F39F0B93FCCF386957795679514
:10131000B395D9F73EF490958095709561957F4F80
:101320008F4F9F4F0895E89409C097FB3EF4909526
:101330008095709561957F4F8F4F9F4F9923A9F0AE
:10134000F92F96E9BB279395F6958795779567953D
:10135000B795F111F8CFFAF4BB0F11F460FF1BC081
:101360006F5F7F4F8F4F9F4F16C0882311F096E914
:1013700011C0772321F09EE8872F762F05C06623C2
:1013800071F096E8862F70E060E02AF09A95660F7B
:10139000771F881FDAF7880F9695879597F9089534
:1013A00057FD9058440F551F59F05F3F71F0479516
:1013B000880F97FB991F61F09F3F79F087950895FB
:1013C000121613061406551FF2CF4695F1DF08C01A
:1013D000161617061806991FF1CF86957105610537
:1013E00008940895E894BB2766277727CB0197F9DF
:1013F00008950BD078C069D028F06ED018F09523EE
:1014000009F05AC05FC01124EECFCADFA0F3959F48
:10141000D1F3950F50E0551F629FF001729FBB27DB
:10142000F00DB11D639FAA27F00DB11DAA1F649F87
:101430006627B00DA11D661F829F2227B00DA11D3A
:10144000621F739FB00DA11D621F839FA00D611DC0
:10145000221F749F3327A00D611D231F849F600DE1
:10146000211D822F762F6A2F11249F5750408AF01A
:10147000E1F088234AF0EE0FFF1FBB1F661F771FA6
:10148000881F91505040A9F79E3F510570F014C03D
:10149000AACF5F3FECF3983EDCF38695779567958E
:1014A000B795F795E7959F5FC1F7FE2B880F911DC4
:1014B0009695879597F9089597F99F6780E870E06A
:1014C00060E008959FEF80EC089500240A941616BA
:1014D000170618060906089500240A941216130622
:1014E000140605060895092E0394000C11F48823B0
:1014F00052F0BB0F40F4BF2B11F460FF04C06F5FCC
:101500007F4F8F4F9F4F08958F929F92AF92BF92C0
:10151000CF92DF92EF92FF92CF93DF93EC0168813D
:1015200079818A819B81611571058105910521F47D
:1015300064E279ED8BE597E02DE133EF41E050E097
:101540000E94E20A49015A019B01AC01A7EAB1E4F9
:101550000E9448096B017C01ACEEB4EFA501940137
:101560000E94040BC60ED71EE81EF91EF7FE06C029
:1015700081E0C81AD108E10880E8F80AC882D98257
:10158000EA82FB82C6019F77DF91CF91FF90EF90B7
:10159000DF90CF90BF90AF909F908F9008950E9462
:1015A000840A089588E090E20E94840A0895A0E0E9
:1015B000B0E08093082090930920A0930A20B09374
:1015C0000B200895052E97FB1EF400940E94F90A43
:1015D00057FD07D00E94170907FC03D04EF40C9466
:1015E000F90A50954095309521953F4F4F4F5F4FE9
:1015F000089590958095709561957F4F8F4F9F4F7F
:101600000895B7FF0C9448090E944809821B930B68
:061610000895F894FFCFDD
:101616000000803F01000100010000004752414EDA
:10162600444D412E57415600494441484F2E57419B
:1016360056004F4B4C41484F4D412E57415600499D
:101646004D4D4947524154494F4E2E574156004938
:101656004E544552564945572D36392E5741560058
:0A1666005452554D502E57415600C6
:00000001FF
