:100000000C9456000C9473000C9473000C947300C1
:100010000C9473000C9473000C9473000C94730094
:100020000C9473000C9473000C9473000C94730084
:100030000C9439010C9473000C9473000C947300AD
:100040000C9473000C9473000C9473000C94730064
:100050000C9473000C9473000C9473000C94730054
:100060000C9473000C9473000C9473000C94730044
:100070000C9473000C9473000C9473000C94730034
:100080000C9473000C9473000C9473000C94730024
:100090000C9473000C9473000C9473000C94730014
:1000A0000C9473000C9473000C94730011241FBE05
:1000B000CFEFCDBFD7E2DEBF10E2A0E0B0E2E8EACA
:1000C000F7E102C005900D92A830B107D9F726E2FA
:1000D000A8E0B0E201C01D92A535B207E1F70E9489
:1000E000D0090C94D20B0C940000EF92FF920F9366
:1000F0001F93CF93DF93CDB7DEB7AE97CDBFDEBFF3
:10010000F89480910E2690910F26892B71F080E053
:1001100098E0809318039093190380931A039093A7
:100120001B0310920E2610920F260E949B0B6091CB
:100130002026709121260E94E90A7C0160E070E08F
:1001400082E296E20E946C0700E010E00E151F05A7
:1001500054F4BE016F5F7F4F82E296E20E946C070B
:100160000F5F1F4FF3CFCE010A960E94F404892B34
:10017000E1F61DA61EA6AE01435D5F4F6CE270E086
:10018000CE0101960E94520580E090E0A0E8BFE316
:100190008093102690931126A0931226B0931326D5
:1001A00089A59AA5ABA5BCA5809314269093152686
:1001B000A0931626B093172610921826109219268F
:1001C00010921A2610921B2610921C2610921D26A1
:1001D00010921E2610921F26AE01435D5F4F60E015
:1001E00072E08EE094E20E94520580911826909170
:1001F0001926A0911A26B0911B262DA53EA5820F87
:10020000931FA11DB11D8093182690931926A093CA
:100210001A26B0931B26AE01435D5F4F60E072E08B
:100220008EE092E20E945205809118269091192644
:10023000A0911A26B0911B262DA53EA5820F931FD3
:10024000A11DB11D8093182690931926A0931A26FC
:10025000B0931B2610920C2010920D207894AE962D
:10026000CDBFDEBFDF91CF911F910F91FF90EF9037
:1002700008951F920F920FB60F9211242F933F9360
:100280005F936F937F938F939F93AF93BF93EF93FE
:10029000FF9380E098E021E020930C0820910E2647
:1002A00030910F26232B49F4809318039093190360
:1002B00080931A0390931B0365C080910C2090914A
:1002C0000D20892B49F080910C2090910D200197F1
:1002D00031F48EE092E205C08EE094E202C08EE03E
:1002E00090E2A0910A20B0910B20E0910A20F091B9
:1002F0000B203196EE0FFF1FE80FF91F208131818F
:100300003058AA0FBB1FA80FB91F8D919C91905810
:1003100064E0969587956A95E1F78093180390932A
:10032000190374E0369527957A95E1F720931A031F
:1003300030931B0380910A2090910B2002968093AA
:100340000A2090930B2080910A2090910B208F3FE0
:100350009105C1F0BCF010920A2010920B20809100
:100360000C2090910D20019663E070E00E94E90A54
:1003700080930C2090930D2081E090E080930020EA
:1003800090930120FF91EF91BF91AF919F918F9139
:100390007F916F915F913F912F910F900FBE0F90C2
:1003A0001F9018950F931F93E0915226F0915326BA
:1003B0009C0122503109468157814250510924172E
:1003C000350768F4A281B0E00E941F0B00891189F3
:1003D00022893389600F711F821F931F03C060E061
:1003E00070E0CB011F910F910895CF93DF93EC0143
:1003F000E0915226F0915326188219828C819D81BA
:1004000081309105B9F0268137818217930790F4E6
:100410008E839F83009719F00E94D20104C06485E7
:10042000758586859785688779878A879B8780E029
:1004300090E002C081E090E0DF91CF9108950F93AA
:100440001F93CF93DF9300D000D0CDB7DEB7E091FC
:100450005226F09153268230910528F1268137816A
:100460008217930700F520812230E9F49C0133279D
:10047000220F331F892F9927408551856285738507
:10048000480F591F611D711D02E010E0CE01019659
:100490000E947A09892B39F48A8190E0982F882765
:1004A0002981822B02C081E090E02496CDBFDEBF7F
:1004B000DF91CF911F910F910895EF92FF920F93CB
:1004C0001F93CF93DF93EC01E0905226F0905326D8
:1004D000088119810F5F1F4F0115110519F483E081
:1004E00090E049C0488559856A857B85411551054D
:1004F00061057105A1F3C8018F709927892BA1F5BA
:100500004F5F5F4F6F4F7F4F488759876A877B8761
:100510008E819F81F701009731F4848195810817BE
:100520001907E8F621C0228130E021503109A801E5
:1005300064E0569547956A95E1F724233523232BEC
:1005400099F40E941F028230910598F0F7012681EC
:1005500037818217930718F68E839F830E94D201FA
:10056000688779878A879B870883198380E090E072
:1005700002C081E090E0DF91CF911F910F91FF9039
:10058000EF900895CF92DF92EF92FF920F931F9317
:10059000CF93DF93EC016A017B0102E010E02EEFC4
:1005A00031E00E947A09892B01F5898190E0982F2A
:1005B00088272881822B85359A4AC9F426E330E0C2
:1005C000B701A601CE010E947A09892B61F4298125
:1005D00030E0322F22278881282B81E026343144D5
:1005E00039F480E005C081E003C083E001C082E00F
:1005F000DF91CF911F910F91FF90EF90DF90CF90FF
:1006000008959F92AF92BF92CF92DF92EF92FF92A6
:100610000F931F93CF93DF93EC017B015A01FA01F3
:1006200080814F5F5F4F8032C9F38F3209F45A01E6
:100630001C821D82F5018081803238F4CE010E9437
:10064000F5016C01F701108283C000E2902EEA816F
:10065000FB81DF01CF010B96A817B90711F09D921E
:10066000FBCF80E090E028E031E0390FD501A90F01
:10067000B11D9C91913270F09F3261F09E3209F46D
:1006800049C0821738F4DF01A80FB11D9C938F5F1A
:10069000932FEACFA30EB11C81E0913208F080E0E5
:1006A0008387CE010E94F5016C01009709F050C0CC
:1006B000288139812F70332715E0220F331F1A95B7
:1006C000E1F7488559856A857B8500E210E0C7011E
:1006D0000E947A09892B21F5F7018081882321F175
:1006E000438543FD10C00A811B81C701D8019801D1
:1006F000255F3F4FA217B307D9F0FC016191CF01ED
:100700005D916517B9F3CE010E945D02009781F2F9
:100710006C011EC0283009F0BDCF88E02BE0B8CFB7
:10072000CC24C394D12C14C0F3E0CF2ED12C10C014
:10073000F801838581110CC044FFF6CFF701838D4A
:1007400090E0982F8827228D822B8C839D837FCFEA
:10075000C601DF91CF911F910F91FF90EF90DF9035
:10076000CF90BF90AF909F9008954F925F926F92FD
:100770007F92AF92BF92CF92DF92EF92FF920F9350
:100780001F93CF93DF93CDB7DEB7A897CDBFDEBF62
:100790005C0110925226109253260E94C20880FDDE
:1007A0000FC140E050E0BA01CE0101960E94C202A2
:1007B000813091F500E110E02EEB31E040E050E0B7
:1007C000BA01CE0101960E947A09892B19F081E0C5
:1007D00090E0F8C08D81811103C086E090E0F2C006
:1007E0008C854B84512C612C712C3201552444246E
:1007F000782A8985482A8A8590E0982F8827A0E062
:10080000B0E0482A592A6A2A7B2AB301A201CE0104
:1008100001960E94C20203C0412C512C3201833048
:10082000B1F28111DACF04E210E02DE030E0B30143
:10083000A201CE0101960E947A09892B41F62B85EF
:1008400030E0322F22278A85282B40E050E0211506
:10085000310541055105A9F48B8D2A8D422F50E0B9
:1008600060E070E033272227582B888D282B898D54
:1008700090E0982F8827A0E0B0E0282B392B4A2B56
:100880005B2BAC81B0E00E942E0B6DA37EA38FA3E7
:1008900098A70B8110E0102F00278A81082B20E0F9
:1008A00030E0400E511E621E731ED50118964D9207
:1008B0005D926D927C921B97E9811296EC93129750
:1008C000CE80D12CDC2CCC248D81C82A1496CD92DC
:1008D000DC921597888590E0982F88274F81842B8C
:1008E000A0E0B0E00097A105B105A9F44F898E8979
:1008F00090E0A0E0B0E0DC0199278827B42B4C8978
:10090000842B4D8950E0542F442760E070E0842B05
:10091000952BA62BB72B44E0D694C7944A95E1F7C4
:10092000E12CF12CBC01CD01601B710B820B930BF0
:100930002DA13EA14FA158A5621B730B840B950BF3
:100940006C197D098E099F092E2F30E040E050E0A0
:100950000E94FD0ADA01C9010296A11DB11DF5012F
:1009600086839783DA01C901865F9F40A109B10997
:100970008F3F9F4EA105B10508F02FCF82E0D50132
:100980008C932DA13EA14FA158A5420E531E641E6B
:10099000751E1C964D925D926D927C921F974C0C29
:1009A0005D1C6E1C7F1CF501408A518A628A738A25
:1009B0001182A0925226B092532680E090E002C0AD
:1009C00082E090E0A896CDBFDEBFDF91CF911F916E
:1009D0000F91FF90EF90DF90CF90BF90AF907F90FE
:1009E0006F905F904F9008950F931F93CF93DF9375
:1009F000CDB7DEB7E897CDBFDEBF0091522610918C
:100A000053260115110509F441C0F80111829E0118
:100A10002F5D3F4F2FA738ABAC01BE016F5F7F4FFB
:100A2000CE018D960E9401030097A1F5898188234C
:100A300079F18C8584FD2CC08C8D90E0982F8827CF
:100A40002B8D822BF801848F958F28A18F8D90E0BC
:100A5000A0E0B0E0DC0199278827B22B2D8D822BF6
:100A60004E8D50E0542F442760E070E0842B952B8E
:100A7000A62BB72B808F918FA28FB38F148A158AE4
:100A8000168A178A81E0818380E003C085E001C077
:100A900083E090E0E896CDBFDEBFDF91CF911F915C
:100AA0000F9108954F925F926F927F928F929F92D3
:100AB000AF92BF92CF92DF92EF92FF920F931F936C
:100AC000CF93DF934C017B015A01C0915226D09104
:100AD0005326FA0110821182209709F497C0898168
:100AE00080FF97C0888D998DAA8DBB8D4C895D89BB
:100AF0006E897F89841B950BA60BB70BA70160E05D
:100B000070E084179507A607B70708F47C01340145
:100B1000412CF2E05F2EE114F10409F474C08C89D9
:100B20009D89AE89BF89AC01BD01517066277727C9
:100B3000452B462B472B81F5DA80DA94AC01BD01B9
:100B4000E9E07695679557954795EA95D1F7D422D0
:100B500081F4892B8A2B8B2B19F48C8D9D8D04C0ED
:100B60008E8D9F8D0E941F028230910580F18E8FA5
:100B70009F8F8E8D9F8D0E94D20161157105810519
:100B8000910529F1DC01CB018D0D911DA11DB11D38
:100B900088A399A3AAA3BBA32C893D893170C20164
:100BA000821B930B67018E159F0508F46C0148A109
:100BB00059A16AA17BA18114910419F480E090E00D
:100BC00001C0C30186010E947A09892B21F0198294
:100BD00081E090E020C08C899D89AE89BF898C0D11
:100BE0009D1DA11DB11D8C8B9D8BAE8BBF8B6C0C85
:100BF0007D1CEC18FD08F501808191818C0D9D1DF7
:100C00008083918388CF80E090E005C085E090E00C
:100C100002C084E090E0DF91CF911F910F91FF908F
:100C2000EF90DF90CF90BF90AF909F908F907F908C
:100C30006F905F904F9008954F925F926F927F9266
:100C40008F929F92AF92BF92CF92DF92EF92FF92DC
:100C50000F931F93CF93DF9300D000D0CDB7DEB7B3
:100C60009B0100915226109153260115110509F49C
:100C7000D8C0D80111964C91119740FFD5C0589615
:100C80004D915D916D917C915B9769017C014C1553
:100C90005D056E057F0510F46A017B01F80144884B
:100CA000558866887788148A158A168A178AC11427
:100CB000D104E104F10409F4BAC08280912CA12C82
:100CC000B12CB9E0880C991CAA1CBB1CBA95D1F7B1
:100CD0004114510461047104C9F1B1E04B1A510887
:100CE00061087108C701B601615071098109910954
:100CF000A50194010E94FD0A29833A834B835C83FA
:100D0000C301B201A50194010E94FD0A89819A8163
:100D1000AB81BC8182179307A407B507B8F0882779
:100D20009927DC0188199909AA09BB098421952111
:100D3000A621B721F801848B958BA68BB78BC81A97
:100D4000D90AEA0AFB0A868D978D28C0D8015C96DD
:100D50008D919C915D975E968D939C935F971EC03D
:100D60000E941F0282309105F8F0F8012681378138
:100D700082179307C8F4F801868F978F44895589A5
:100D800066897789480D591D6A1D7B1D448B558BDB
:100D9000668B778BC818D908EA08FB088C149D0469
:100DA000AE04BF04E8F204C0D80111961C9216C02C
:100DB000F80184889588A688B7888C0C9D1CAE1C89
:100DC000BF1C848A958AA68AB78A0E94D2016115BF
:100DD00071058105910529F4F801118281E090E007
:100DE00028C0A9E0B694A79497948794AA95D1F7C0
:100DF000D8011296CC90D12CB1E0CB1AD108EE24B8
:100E0000D7FCE094FE2C8C209D20AE20BF20860EC7
:100E1000971EA81EB91EF80180A291A2A2A2B3A299
:100E200006C085E090E005C084E090E002C080E06C
:100E300090E02496CDBFDEBFDF91CF911F910F913F
:100E4000FF90EF90DF90CF90BF90AF909F908F90EA
:100E50007F906F905F904F9008950F931F93CF9363
:100E6000DF93CDB7DEB7AC97CDBFDEBF8C01AB0152
:100E70008091522690915326892BE9F0CE018196DC
:100E8000F80182839383BE016F5F7F4FC8010E9488
:100E900001030097C9F48981882399F08C8584FF28
:100EA0000DC08C8D90E0982F88272B8D822BF80118
:100EB0008483958306C085E090E006C083E090E0DF
:100EC00003C0C8010E94F501AC96CDBFDEBFDF9123
:100ED000CF911F910F910895CF92DF92EF92FF92E1
:100EE0000F931F93CF93DF93CDB7DEB7AC97CDBFF2
:100EF000DEBF7C016B018091522690915326892B95
:100F000009F4C8C0CE018196D70112968D939C93A7
:100F100013976115710519F083E090E023C0C701B4
:100F20000E94F501C0C0F701208131812F70332765
:100F300085E0220F331F8A95E1F700E210E0CE0131
:100F400001960E947A09892B09F0A7C0898188231C
:100F500009F4A6C09C85853E91F4C7010E945D02FC
:100F60000097A1F4D70118964D915D916D917C91F8
:100F70001B974115510561057105A9F605C08E3213
:100F800061F393FDEACF0AC0009741F0F7011086A4
:100F900011861286138683309105A9F4F6013996DD
:100FA000D70118964D915D916D917C911B97452BC2
:100FB000462B472B09F464C0CE010196DF01AE0138
:100FC000475F5F4F10C0009709F06DC0E7CF6530F5
:100FD00009F465EE9D012F5F3F4FF9016C93841773
:100FE000950739F0D901FC016191CF01603279F7A1
:100FF000FD012985203289F08EE28083CF0102969F
:1010000021832A85203229F0019622832B852032E4
:1010100011F4FC0102C0238334968C85D601189606
:101020008C9388A14F8D50E060E070E0BA015527A5
:101030004427782B8D8D482B8E8D90E0982F882714
:10104000A0E0B0E0482B592B6A2B7B2BD6014D93A7
:101050005D936D937C9313978A8D90E0982F8827EA
:10106000298D822B14968D939C931597888D90E0F3
:10107000982F88272F89822B16968D939C931797EC
:101080001082C7010E945D028330910561F480E007
:1010900090E009C085E090E006C081E090E076CF66
:1010A00083E090E073CFAC96CDBFDEBFDF91CF91F0
:1010B0001F910F91FF90EF90DF90CF900895E0E4A3
:1010C000F6E080EB818388E1868BE0EEF8E080E15A
:1010D000808384E08483808180648083089580930A
:1010E000E3088091E20887FFFCCF8091E308089530
:1010F0008FEF0C946F08EF92FF920F931F93CF9393
:10110000DF93C82F142F052FF62EE72E87FF09C077
:1011100040E050E0BA0187E70E947B08823058F532
:10112000CF77D0E1D09345060E947808D093460649
:101130000E9478088C2F0E946F088E2D0E946F08E5
:101140008F2D0E946F08802F0E946F08812F0E94B0
:101150006F08C03421F0C83421F081E003C085E974
:1011600001C087E80E946F08CAE00E94780887FFE4
:1011700002C0C150D1F7DF91CF911F910F91FF9025
:10118000EF900895EF92FF920F931F93CF93DF9309
:10119000CDB7DEB72597CDBFDEBF0E945F0880E1E7
:1011A000809345061AE00E9478081150E1F740E06C
:1011B00050E0BA0180E40E947B08813009F067C0EA
:1011C0004AEA51E060E070E088E40E947B088130E8
:1011D00079F57E0185E0E80EF11C8E010F5F1F4F4F
:1011E0000E947808F80181938F01EE15FF05C1F781
:1011F0008B81813009F04BC08C818A3A09F047C05D
:1012000000E117E240E050E060E070E489EE0E9407
:101210007B08882309F448C087EC90E00197F1F738
:1012200000C00000015011090115110559F72FC028
:1012300040E050E0BA0189EE0E947B08823020F441
:1012400092E0F92E99EE03C0FF24F39491E400E1BB
:1012500017E240E050E0BA01892F9D830E947B088D
:101260009D81882361F0E7ECF0E03197F1F700C051
:101270000000015011090115110559F708C040E09F
:1012800052E060E070E080E50E947B088111F12C63
:10129000F092542680E1809345060E94780881E010
:1012A000FF20F1F080E01CC040E050E0BA018AE786
:1012B0000E947B088111EBCF8E010F5F1F4F0E94B0
:1012C0007808F80181938F01EE15FF05C1F7898138
:1012D00086FF03C02CE0F22EDBCF84E0F82ED8CFBF
:1012E0002596CDBFDEBFDF91CF911F910F91FF906B
:1012F000EF900895CF92DF92EF92FF920F931F939A
:10130000CF93DF93EC0179018091542683FD07C0D0
:10131000E9E0440F551F661F771FEA95D1F781E575
:101320000E947B08882319F0C1E0D0E02AC00E9407
:1013300078088F3FE1F38E3FB9F732E0C32EDC2C03
:10134000C01AD10ACE18DF08E114F10431F00E946E
:10135000780881E0E81AF108F7CF209741F00E9461
:10136000780889930150110901151105C1F70E94F0
:10137000780881E0C81AD108C114D104C1F7C0E0CF
:10138000D0E080E1809345060E947808CE01DF918D
:10139000CF911F910F91FF90EF90DF90CF90089524
:1013A000CF93DF93CDB7DEB76897CDBFDEBF82E0C6
:1013B000809350008091510081FFFCCF88ED84BF65
:1013C00021E0209340008DE08093000380E480932F
:1013D000010388E08093020386ED92E08093260863
:1013E000909327082093060882E08093000880915C
:1013F000A20081608093A2008EE296E20E94B50373
:10140000892B11F0F894FFCF66E070E282E296E259
:101410000E942D07892B59F0F894FFCF8A858823E5
:1014200099F02F5F3F4F2093202630932126BE0155
:101430006F5F7F4F82E296E20E946C072091202628
:1014400030912126892B51F3232B11F4F894FFCFEF
:101450008091680688708093082010920E26109262
:101460000F2680E090E0A0E8BFE3809310269093E1
:101470001126A0931226B093132610921C261092C8
:101480001D2610921E2610921F26109214261092CE
:10149000152610921626109217267894EE24E394BF
:1014A000F12C93E0C92ED12C02E010E080910020B5
:1014B00090910120892BD1F180910C2090910D20E9
:1014C000892B41F4AE01495E5F4F60E072E08EE02F
:1014D00090E210C080910C2090910D20AE01495EE9
:1014E0005F4F60E072E0019719F48EE094E202C071
:1014F0008EE092E20E945205809118269091192662
:10150000A0911A26B0911B262F89388D820F931F28
:10151000A11DB11D8093182690931926A0931A2619
:10152000B0931B2610920020109201208091082079
:1015300080930920809168068870809308208091AC
:101540000920882321F080910820882371F0809160
:1015500009208111ABCF80910820882309F4A6CF00
:1015600020E030E041E050E004C021E030E040E025
:1015700050E080910E2690910F268130910589F0E0
:1015800030F082309105A9F00397D9F08FCF452B29
:1015900009F48CCF0E947500E0920E26F0920F267F
:1015A00085CF232B09F482CF10920E2610920F269E
:1015B0007DCF452B09F47ACFC0920E26D0920F260C
:1015C00075CF232B09F472CF00930E2610930F26AC
:1015D0006DCF97FB072E16F4009407D077FD09D046
:1015E0000E94390B07FC05D03EF4909581959F4FE2
:1015F0000895709561957F4F0895A1E21A2EAA1B58
:10160000BB1BFD010DC0AA1FBB1FEE1FFF1FA217B2
:10161000B307E407F50720F0A21BB30BE40BF50BAF
:10162000661F771F881F991F1A9469F76095709538
:10163000809590959B01AC01BD01CF010895A29FBB
:10164000B001B39FC001A39F700D811D1124911D96
:10165000B29F700D811D1124911D08950E941F0BD2
:10166000A59F900DB49F900DA49F800D911D1124F6
:101670000895AA1BBB1B51E107C0AA1FBB1FA617D9
:10168000B70710F0A61BB70B881F991F5A95A9F72B
:1016900080959095BC01CD0108958F929F92AF9255
:1016A000BF92CF92DF92EF92FF92CF93DF93EC0144
:1016B000688179818A819B81611571058105910518
:1016C00021F464E279ED8BE597E02DE133EF41E021
:1016D00050E00E94AB0B49015A019B01AC01A7EA03
:1016E000B1E40E942E0B6B017C01ACEEB4EFA501BE
:1016F00094010E94CD0BC60ED71EE81EF91EF7FE00
:1017000006C081E0C81AD108E10880E8F80AC8825A
:10171000D982EA82FB82C6019F77DF91CF91FF9049
:10172000EF90DF90CF90BF90AF909F908F900895F3
:101730000E944D0B089582E090E20E944D0B0895A7
:10174000A0E0B0E08093022090930320A0930420B7
:10175000B09305200895052E97FB1EF400940E9477
:10176000C20B57FD07D00E94FD0A07FC03D04EF4C0
:101770000C94C20B50954095309521953F4F4F4F9B
:101780005F4F089590958095709561957F4F8F4F2D
:101790009F4F0895B7FF0C942E0B0E942E0B821BB7
:0817A000930B0895F894FFCFAC
:0817A8000100010000002F0008
:00000001FF
