:100000000C9456000C9473000C9473000C947300C1
:100010000C9473000C9473000C9473000C94730094
:100020000C9473000C9473000C9473000C94730084
:100030000C941F010C9473000C9473000C947300C7
:100040000C9473000C9473000C9473000C94730064
:100050000C9473000C9473000C9473000C94730054
:100060000C9473000C9473000C9473000C94730044
:100070000C9473000C9473000C9473000C94730034
:100080000C9473000C9473000C9473000C94730024
:100090000C9473000C9473000C9473000C94730014
:1000A0000C9473000C9473000C94730011241FBE05
:1000B000CFEFCDBFD7E2DEBF10E2A0E0B0E2E6EBCB
:1000C000FBE102C005900D92AC30B107D9F726E2F2
:1000D000ACE0B0E201C01D92AB34B207E1F70E9480
:1000E000C50A0C94D90D0C940000CF93DF93CDB7C3
:1000F000DEB7AE97CDBFDEBFF894809136269091E3
:100100003726892B71F080E098E080931803909354
:10011000190380931A0390931B03109236261092B2
:10012000372682E090E20E94E9051DA61EA6AE01D8
:10013000435D5F4F6CE270E0CE0101960E9447067E
:1001400080E090E0A0E8BFE38093382690933926C2
:10015000A0933A26B0933B2629A13AA140E050E073
:1001600069A57AA58BA59CA50E94DB0B20933C2654
:1001700030933D2640933E2650933F2610924026D2
:100180001092412610924226109243261092442645
:10019000109245261092462610924726AE01435DE6
:1001A0005F4F60E072E086E394E20E944706809130
:1001B000402690914126A0914226B09143262DA53C
:1001C0003EA53695279536952795820F931FA11D3D
:1001D000B11D8093402690934126A0934226B09370
:1001E0004326AE01435D5F4F60E072E086E392E23A
:1001F0000E9447068091402690914126A091422678
:10020000B09143262DA53EA5369527953695279581
:10021000820F931FA11DB11D80934026909341260C
:10022000A0934226B093432610923420109235209A
:100230007894AE96CDBFDEBFDF91CF9108951F9227
:100240000F920FB60F9211244F925F926F927F928E
:100250008F929F92AF92BF92CF92DF92EF92FF92D6
:100260000F931F932F933F934F935F936F937F93BE
:100270008F939F93AF93BF93EF93FF93CF93DF93AE
:1002800000D000D0CDB7DEB720E038E081E0809329
:100290000C08C0903626D0903726C114D10449F4FA
:1002A000209318033093190320931A0330931B03F0
:1002B0004AC140914426509145266091462670914E
:1002C000472680913C2690913D26A0913E26B091F4
:1002D0003F26481759076A077B0768F020931803E1
:1002E0003093190320931A0330931B031092362680
:1002F0001092372628C18091342090913520892B87
:1003000049F08091342090913520019731F406E333
:1003100012E205C006E314E202C006E310E2E09137
:100320003220F0913320EE0FFF1FE00FF11F6081AC
:100330007181882777FD8095982F70588F4F9F4F38
:100340000E94C20C0E94940C4B015C017B01E09165
:100350003220F09133203196EE0FFF1FE00FF11F96
:1003600060817181882777FD8095982F70588F4F15
:100370009F4F0E94C20C0E94940C2B013C01C601AD
:100380000297029798F520913826309139264091AE
:100390003A2650913B26B40180E090E029833A83CD
:1003A0004B835C830E94C00C29813A814B815C8124
:1003B0000E94760D0E94940C7B012091382630918A
:1003C000392640913A2650913B26B20180E090E0D8
:1003D00029833A834B835C830E94C00C29813A8134
:1003E0004B815C810E94760D0E94940CF4E0F6949F
:1003F000E794FA95E1F7E0921803F0921903A4E06C
:1004000076956795AA95E1F760931A0370931B039D
:1004100082E0C816D10499F560913826709139268A
:1004200080913A2690913B262FE93CE248E157E340
:100430000E942B0C609338267093392680933A26BD
:1004400090933B26609138267091392680913A2608
:1004500090913B2620E030E0A9010E94900C1816F4
:100460000CF449C0109238261092392610923A2680
:1004700010923B2610923626109237263CC0E3E0BD
:10048000CE16D104C1F5609138267091392680913D
:100490003A2690913B2626EC37E34EE358E30E9440
:1004A0002C0C609338267093392680933A269093CB
:1004B0003B26609138267091392680913A2690919A
:1004C0003B2620E030E040E85FE30E94720D87FDAC
:1004D00012C080E090E0A0E8BFE3809338269093BC
:1004E0003926A0933A26B0933B2681E090E0809392
:1004F00036269093372680913220909133200296B1
:100500008093322090933320809132209091332039
:100510008F3F9105C1F0BCF0109232201092332031
:100520008091342090913520019663E070E00E9424
:10053000C70B809334209093352081E090E0809326
:100540000020909301202496CDBFDEBFDF91CF9194
:10055000FF91EF91BF91AF919F918F917F916F919B
:100560005F914F913F912F911F910F91FF90EF90CD
:10057000DF90CF90BF90AF909F908F907F906F90C3
:100580005F904F900F900FBE0F901F9018950F9394
:100590001F93E0914826F09149269C012250310991
:1005A00046815781425051092417350768F4A281CA
:1005B000B0E00E94FD0B0089118922893389600F08
:1005C000711F821F931F03C060E070E0CB011F9179
:1005D0000F910895CF93DF93EC01E0914826F091BD
:1005E0004926188219828C819D8181309105B9F04C
:1005F000268137818217930790F48E839F8300971B
:1006000019F00E94C70204C06485758586859785A8
:10061000688779878A879B8780E090E002C081E0C5
:1006200090E0DF91CF9108950F931F93CF93DF93C5
:1006300000D000D0CDB7DEB7E0914826F091492632
:100640008230910528F1268137818217930700F5C2
:1006500020812230E9F49C013327220F331F892F98
:1006600099274085518562857385480F591F611D03
:10067000711D02E010E0CE0101960E946F0A892BE5
:1006800039F48A8190E0982F88272981822B02C033
:1006900081E090E02496CDBFDEBFDF91CF911F9126
:1006A0000F910895EF92FF920F931F93CF93DF93D3
:1006B000EC01E0904826F0904926088119810F5FEF
:1006C0001F4F0115110519F483E090E049C04885DA
:1006D00059856A857B854115510561057105A1F331
:1006E000C8018F709927892BA1F54F5F5F4F6F4F1E
:1006F0007F4F488759876A877B878E819F81F70163
:10070000009731F48481958108171907E8F621C014
:10071000228130E021503109A80164E056954795C7
:100720006A95E1F724233523232B99F40E941403BF
:100730008230910598F0F70126813781821793075F
:1007400018F68E839F830E94C702688779878A87FD
:100750009B870883198380E090E002C081E090E0ED
:10076000DF91CF911F910F91FF90EF900895CF925D
:10077000DF92EF92FF920F931F93CF93DF93EC01E1
:100780006A017B0102E010E02EEF31E00E946F0A67
:10079000892B01F5898190E0982F88272881822B69
:1007A00085359A4AC9F426E330E0B701A601CE01A7
:1007B0000E946F0A892B61F4298130E0322F2227B1
:1007C0008881282B81E02634314439F480E005C04B
:1007D00081E003C083E001C082E0DF91CF911F91EF
:1007E0000F91FF90EF90DF90CF9008959F92AF927E
:1007F000BF92CF92DF92EF92FF920F931F93CF930E
:10080000DF93EC017B015A01FA0180814F5F5F4F5A
:100810008032C9F38F3209F45A011C821D82F5011E
:100820008081803238F4CE010E94EA026C01F70127
:10083000108283C000E2902EEA81FB81DF01CF01AC
:100840000B96A817B90711F09D92FBCF80E090E0BE
:1008500028E031E0390FD501A90FB11D9C919132EB
:1008600070F09F3261F09E3209F449C0821738F46B
:10087000DF01A80FB11D9C938F5F932FEACFA30ECA
:10088000B11C81E0913208F080E08387CE010E94A4
:10089000EA026C01009709F050C0288139812F705D
:1008A000332715E0220F331F1A95E1F74885598544
:1008B0006A857B8500E210E0C7010E946F0A892BE0
:1008C00021F5F7018081882321F1438543FD10C084
:1008D0000A811B81C701D8019801255F3F4FA217EC
:1008E000B307D9F0FC016191CF015D916517B9F3B0
:1008F000CE010E945203009781F26C011EC0283085
:1009000009F0BDCF88E02BE0B8CFCC24C394D12C24
:1009100014C0F3E0CF2ED12C10C0F80183858111D3
:100920000CC044FFF6CFF701838D90E0982F882705
:10093000228D822B8C839D837FCFC601DF91CF9147
:100940001F910F91FF90EF90DF90CF90BF90AF90ED
:100950009F9008954F925F926F927F92AF92BF9255
:10096000CF92DF92EF92FF920F931F93CF93DF937B
:10097000CDB7DEB7A897CDBFDEBF5C011092482689
:10098000109249260E94B70980FD0FC140E050E057
:10099000BA01CE0101960E94B703813091F500E1C2
:1009A00010E02EEB31E040E050E0BA01CE010196BC
:1009B0000E946F0A892B19F081E090E0F8C08D81C8
:1009C000811103C086E090E0F2C08C854B84512CED
:1009D000612C712C320155244424782A8985482AB7
:1009E0008A8590E0982F8827A0E0B0E0482A592A0D
:1009F0006A2A7B2AB301A201CE0101960E94B703A5
:100A000003C0412C512C32018330B1F28111DACF75
:100A100004E210E02DE030E0B301A201CE01019626
:100A20000E946F0A892B41F62B8530E0322F222756
:100A30008A85282B40E050E02115310541055105FC
:100A4000A9F48B8D2A8D422F50E060E070E03327AF
:100A50002227582B888D282B898D90E0982F882766
:100A6000A0E0B0E0282B392B4A2B5B2BAC81B0E007
:100A70000E940C0C6DA37EA38FA398A70B8110E09E
:100A8000102F00278A81082B20E030E0400E511EF5
:100A9000621E731ED50118964D925D926D927C92E6
:100AA0001B97E9811296EC931297CE80D12CDC2C07
:100AB000CC248D81C82A1496CD92DC921597888516
:100AC00090E0982F88274F81842BA0E0B0E000971A
:100AD000A105B105A9F44F898E8990E0A0E0B0E0AE
:100AE000DC0199278827B42B4C89842B4D8950E051
:100AF000542F442760E070E0842B952BA62BB72B56
:100B000044E0D694C7944A95E1F7E12CF12CBC015E
:100B1000CD01601B710B820B930B2DA13EA14FA148
:100B200058A5621B730B840B950B6C197D098E09FC
:100B30009F092E2F30E040E050E00E94DB0BDA01ED
:100B4000C9010296A11DB11DF50186839783DA01C3
:100B5000C901865F9F40A109B1098F3F9F4EA10542
:100B6000B10508F02FCF82E0D5018C932DA13EA1D5
:100B70004FA158A5420E531E641E751E1C964D9221
:100B80005D926D927C921F974C0C5D1C6E1C7F1CBD
:100B9000F501408A518A628A738A1182A09248269E
:100BA000B092492680E090E002C082E090E0A896F2
:100BB000CDBFDEBFDF91CF911F910F91FF90EF90DE
:100BC000DF90CF90BF90AF907F906F905F904F90ED
:100BD00008950F931F93CF93DF93CDB7DEB7E897B8
:100BE000CDBFDEBF009148261091492601151105A1
:100BF00009F441C0F80111829E012F5D3F4F2FA7DC
:100C000038ABAC01BE016F5F7F4FCE018D960E9465
:100C1000F6030097A1F58981882379F18C8584FDFD
:100C20002CC08C8D90E0982F88272B8D822BF8017B
:100C3000848F958F28A18F8D90E0A0E0B0E0DC013B
:100C400099278827B22B2D8D822B4E8D50E0542F63
:100C5000442760E070E0842B952BA62BB72B808F68
:100C6000918FA28FB38F148A158A168A178A81E012
:100C7000818380E003C085E001C083E090E0E896D6
:100C8000CDBFDEBFDF91CF911F910F9108954F929D
:100C90005F926F927F928F929F92AF92BF92CF920C
:100CA000DF92EF92FF920F931F93CF93DF934C014C
:100CB0007B015A01C0914826D0914926FA01108241
:100CC0001182209709F497C0898180FF97C0888D91
:100CD000998DAA8DBB8D4C895D896E897F89841B16
:100CE000950BA60BB70BA70160E070E08417950782
:100CF000A607B70708F47C013401412CF2E05F2E0F
:100D0000E114F10409F474C08C899D89AE89BF890E
:100D1000AC01BD01517066277727452B462B472B29
:100D200081F5DA80DA94AC01BD01E9E0769567954A
:100D300057954795EA95D1F7D42281F4892B8A2BD0
:100D40008B2B19F48C8D9D8D04C08E8D9F8D0E94F0
:100D500014038230910580F18E8F9F8F8E8D9F8D31
:100D60000E94C702611571058105910529F1DC0119
:100D7000CB018D0D911DA11DB11D88A399A3AAA31F
:100D8000BBA32C893D893170C201821B930B670183
:100D90008E159F0508F46C0148A159A16AA17BA199
:100DA0008114910419F480E090E001C0C301860130
:100DB0000E946F0A892B21F0198281E090E020C007
:100DC0008C899D89AE89BF898C0D9D1DA11DB11D8A
:100DD0008C8B9D8BAE8BBF8B6C0C7D1CEC18FD0837
:100DE000F501808191818C0D9D1D8083918388CF39
:100DF00080E090E005C085E090E002C084E090E0F3
:100E0000DF91CF911F910F91FF90EF90DF90CF90E6
:100E1000BF90AF909F908F907F906F905F904F901A
:100E200008954F925F926F927F928F929F92AF92AE
:100E3000BF92CF92DF92EF92FF920F931F93CF93C7
:100E4000DF9300D000D0CDB7DEB79B0100914826DC
:100E5000109149260115110509F4D8C0D801119641
:100E60004C91119740FFD5C058964D915D916D9171
:100E70007C915B9769017C014C155D056E057F05D2
:100E800010F46A017B01F8014488558866887788E8
:100E9000148A158A168A178AC114D104E104F10450
:100EA00009F4BAC08280912CA12CB12CB9E0880C35
:100EB000991CAA1CBB1CBA95D1F7411451046104BA
:100EC0007104C9F1B1E04B1A510861087108C701FA
:100ED000B6016150710981099109A50194010E942F
:100EE000DB0B29833A834B835C83C301B201A501E9
:100EF00094010E94DB0B89819A81AB81BC818217AE
:100F00009307A407B507B8F088279927DC0188194B
:100F10009909AA09BB0984219521A621B721F801C5
:100F2000848B958BA68BB78BC81AD90AEA0AFB0A61
:100F3000868D978D28C0D8015C968D919C915D9788
:100F40005E968D939C935F971EC00E94140382301F
:100F50009105F8F0F8012681378182179307C8F4CC
:100F6000F801868F978F4489558966897789480D5E
:100F7000591D6A1D7B1D448B558B668B778BC8185A
:100F8000D908EA08FB088C149D04AE04BF04E8F2FB
:100F900004C0D80111961C9216C0F8018488958867
:100FA000A688B7888C0C9D1CAE1CBF1C848A958AB1
:100FB000A68AB78A0E94C70261157105810591054D
:100FC00029F4F801118281E090E028C0A9E0B694EC
:100FD000A79497948794AA95D1F7D8011296CC90AC
:100FE000D12CB1E0CB1AD108EE24D7FCE094FE2C32
:100FF0008C209D20AE20BF20860E971EA81EB91EF5
:10100000F80180A291A2A2A2B3A206C085E090E05E
:1010100005C084E090E002C080E090E02496CDBF5F
:10102000DEBFDF91CF911F910F91FF90EF90DF9086
:10103000CF90BF90AF909F908F907F906F905F9078
:101040004F9008950F931F93CF93DF93CDB7DEB7E3
:10105000AC97CDBFDEBF8C01AB018091482690914B
:101060004926892BE9F0CE018196F801828393838A
:10107000BE016F5F7F4FC8010E94F6030097C9F45D
:101080008981882399F08C8584FF0DC08C8D90E038
:10109000982F88272B8D822BF8018483958306C097
:1010A00085E090E006C083E090E003C0C8010E94A4
:1010B000EA02AC96CDBFDEBFDF91CF911F910F91B9
:1010C0000895CF92DF92EF92FF920F931F93CF93E9
:1010D000DF93CDB7DEB7AC97CDBFDEBF7C016B0130
:1010E0008091482690914926892B09F4C8C0CE01E9
:1010F0008196D70112968D939C9313976115710574
:1011000019F083E090E023C0C7010E94EA02C0C04A
:10111000F701208131812F70332785E0220F331FA3
:101120008A95E1F700E210E0CE0101960E946F0A75
:10113000892B09F0A7C08981882309F4A6C09C8562
:10114000853E91F4C7010E9452030097A1F4D70194
:1011500018964D915D916D917C911B9741155105AC
:1011600061057105A9F605C08E3261F393FDEACFE2
:101170000AC0009741F0F701108611861286138687
:1011800083309105A9F4F6013996D70118964D914F
:101190005D916D917C911B97452B462B472B09F454
:1011A00064C0CE010196DF01AE01475F5F4F10C002
:1011B000009709F06DC0E7CF653009F465EE9D0139
:1011C0002F5F3F4FF9016C938417950739F0D901D0
:1011D000FC016191CF01603279F7FD012985203250
:1011E00089F08EE28083CF01029621832A85203206
:1011F00029F0019622832B85203211F4FC0102C0D4
:10120000238334968C85D60118968C9388A14F8DB4
:1012100050E060E070E0BA0155274427782B8D8DAF
:10122000482B8E8D90E0982F8827A0E0B0E0482BC7
:10123000592B6A2B7B2BD6014D935D936D937C9339
:1012400013978A8D90E0982F8827298D822B1496EA
:101250008D939C931597888D90E0982F88272F89E0
:10126000822B16968D939C9317971082C7010E942C
:1012700052038330910561F480E090E009C085E07D
:1012800090E006C081E090E076CF83E090E073CFFD
:10129000AC96CDBFDEBFDF91CF911F910F91FF9034
:1012A000EF90DF90CF900895E0E4F6E080EB81834B
:1012B00088E1868BE0EEF8E080E1808384E084833F
:1012C00080818064808308958093E3088091E208A0
:1012D00087FFFCCF8091E30808958FEF0C94640999
:1012E000EF92FF920F931F93CF93DF93C82F142F8A
:1012F000052FF62EE72E87FF09C040E050E0BA0127
:1013000087E70E947009823058F5CF77D0E1D093FB
:1013100045060E946D09D09346060E946D098C2FE8
:101320000E9464098E2D0E9464098F2D0E94640919
:10133000802F0E946409812F0E946409C03421F02B
:10134000C83421F081E003C085E901C087E80E942C
:101350006409CAE00E946D0987FF02C0C150D1F73D
:10136000DF91CF911F910F91FF90EF900895EF9231
:10137000FF920F931F93CF93DF93CDB7DEB72597DF
:10138000CDBFDEBF0E94540980E1809345061AE07C
:101390000E946D091150E1F740E050E0BA0180E48D
:1013A0000E947009813009F067C04AEA51E060E0AC
:1013B00070E088E40E947009813079F57E0185E053
:1013C000E80EF11C8E010F5F1F4F0E946D09F8019E
:1013D00081938F01EE15FF05C1F78B81813009F0F4
:1013E0004BC08C818A3A09F047C000E117E240E027
:1013F00050E060E070E489EE0E947009882309F4EF
:1014000048C087EC90E00197F1F700C00000015060
:1014100011090115110559F72FC040E050E0BA013C
:1014200089EE0E947009823020F492E0F92E99EE44
:1014300003C0FF24F39491E400E117E240E050E0A0
:10144000BA01892F9D830E9470099D81882361F0D4
:10145000E7ECF0E03197F1F700C00000015011090E
:101460000115110559F708C040E052E060E070E056
:1014700080E50E9470098111F12CF0924A2680E1EA
:10148000809345060E946D0981E0FF20F1F080E025
:101490001CC040E050E0BA018AE70E947009811147
:1014A000EBCF8E010F5F1F4F0E946D09F8018193F2
:1014B0008F01EE15FF05C1F7898186FF03C02CE07F
:1014C000F22EDBCF84E0F82ED8CF2596CDBFDEBF3D
:1014D000DF91CF911F910F91FF90EF900895CF92E0
:1014E000DF92EF92FF920F931F93CF93DF93EC0164
:1014F000790180914A2683FD07C0E9E0440F551F1A
:10150000661F771FEA95D1F781E50E94700988234D
:1015100019F0C1E0D0E02AC00E946D098F3FE1F3CD
:101520008E3FB9F732E0C32EDC2CC01AD10ACE1898
:10153000DF08E114F10431F00E946D0981E0E81A3E
:10154000F108F7CF209741F00E946D09899301506F
:10155000110901151105C1F70E946D0981E0C81A32
:10156000D108C114D104C1F7C0E0D0E080E180937C
:1015700045060E946D09CE01DF91CF911F910F9119
:10158000FF90EF90DF90CF900895CF93DF9300D03E
:10159000CDB7DEB782E0809350008091510081FF8B
:1015A000FCCF88ED84BF21E0209340008DE0809344
:1015B000000380E48093010388E08093020386EDBA
:1015C00092E080932608909327082093060882E0F3
:1015D000809300088091A20081608093A2008EE039
:1015E00090E20E94AA04892B11F0F894FFCF809119
:1015F0006806887080930C20109236261092372649
:1016000080E090E0A0E8BFE38093382690933926ED
:10161000A0933A26B0933B2610924426109245267A
:10162000109246261092472610923C2610923D2694
:1016300010923E2610923F26789402E010E0EE24AD
:10164000E394F12CE3E0CE2ED12C80910C208093FA
:101650000D2080916806887080930C2080910D2069
:10166000882321F080910C20882369F080910D203F
:10167000811131C080910C20882369F120E030E095
:1016800041E050E004C021E030E040E050E08091D3
:1016900036269091372681309105B9F030F08230AE
:1016A000910561F0039789F016C0452BA1F00E94C7
:1016B0007500E0923626F09237260DC0452B59F082
:1016C000C0923626D092372606C0232B21F00093F5
:1016D0003626109337268091002090910120892B87
:1016E00009F4B3CF409140265091412660914226A3
:1016F0007091432680913C2690913D26A0913E26F4
:10170000B0913F26481759076A077B0708F09DCF1D
:101710008091342090913520892B41F4AE014F5FA8
:101720005F4F60E072E086E390E210C08091342069
:1017300090913520AE014F5F5F4F60E072E00197FE
:1017400019F486E394E202C086E392E20E9447061F
:101750008091402690914126A0914226B091432647
:1017600029813A813695279536952795820F931FC3
:10177000A11DB11D8093402690934126A09342263F
:10178000B093432610920020109201205ECF97FB69
:10179000072E16F4009407D077FD09D00E94170C8D
:1017A00007FC05D03EF4909581959F4F0895709564
:1017B00061957F4F0895A1E21A2EAA1BBB1BFD0164
:1017C0000DC0AA1FBB1FEE1FFF1FA217B307E40720
:1017D000F50720F0A21BB30BE40BF50B661F771F78
:1017E000881F991F1A9469F7609570958095909558
:1017F0009B01AC01BD01CF010895A29FB001B39F31
:10180000C001A39F700D811D1124911DB29F700D09
:10181000811D1124911D08950E94FD0BA59F900D1F
:10182000B49F900DA49F800D911D11240895AA1BB3
:10183000BB1B51E107C0AA1FBB1FA617B70710F0BB
:10184000A61BB70B881F991F5A95A9F780959095ED
:10185000BC01CD0108955058BB27AA270ED008C15E
:10186000F9D030F0FED020F031F49F3F11F41EF497
:10187000EEC00EF4E095E7FBE4C0E92F0AD180F357
:10188000BA17620773078407950718F071F49EF57D
:1018900022C10EF4E0950B2EBA2FA02D0B01B90139
:1018A00090010C01CA01A0011124FF27591B99F0D6
:1018B000593F50F4503E68F11A16F040A22F232FE2
:1018C000342F4427585FF3CF469537952795A79532
:1018D000F0405395C9F77EF41F16BA0B620B730BD9
:1018E000840BBAF09150A1F0FF0FBB1F661F771F4A
:1018F000881FC2F70EC0BA0F621F731F841F48F4FF
:10190000879577956795B795F7959E3F08F0B3CF84
:101910009395880F08F09927EE0F9795879508956E
:101920006CD008F481E00895BCD088F09F5790F007
:10193000B92F9927B751A0F0D1F0660F771F881FF4
:10194000991F1AF0BA95C9F712C0B13081F0C3D00F
:10195000B1E00895C0C0672F782F8827B85F39F0AD
:10196000B93FCCF3869577956795B395D9F73EF453
:1019700090958095709561957F4F8F4F9F4F0895FB
:10198000E89409C097FB3EF4909580957095619519
:101990007F4F8F4F9F4F9923A9F0F92F96E9BB27CF
:1019A0009395F695879577956795B795F111F8CF4B
:1019B000FAF4BB0F11F460FF1BC06F5F7F4F8F4FB6
:1019C0009F4F16C0882311F096E911C0772321F0AC
:1019D0009EE8872F762F05C0662371F096E8862F44
:1019E00070E060E02AF09A95660F771F881FDAF79B
:1019F000880F9695879597F90895990F0008550FC8
:101A0000AA0BE0E8FEEF16161706E807F907C0F084
:101A100012161306E407F50798F0621B730B840B8C
:101A2000950B39F40A2661F0232B242B252B21F466
:101A300008950A2609F4A140A6958FEF811D811D06
:101A4000089597F99F6780E870E060E008959FEF40
:101A500080EC089500240A94161617061806090645
:101A6000089500240A941216130614060506089514
:101A7000092E0394000C11F4882352F0BB0F40F49C
:101A8000BF2B11F460FF04C06F5F7F4F8F4F9F4FDC
:101A9000089557FD9058440F551F59F05F3F71F05E
:101AA0004795880F97FB991F61F09F3F79F08795C5
:101AB0000895121613061406551FF2CF4695F1DF4E
:101AC00008C0161617061806991FF1CF86957105DE
:101AD000610508940895E894BB2766277727CB0112
:101AE00097F908958ADF08F48FEF08950BD0C0CFDF
:101AF000B1DF28F0B6DF18F0952309F0A2CFA7CF09
:101B00001124EACFC6DFA0F3959FD1F3950F50E0E3
:101B1000551F629FF001729FBB27F00DB11D639F9F
:101B2000AA27F00DB11DAA1F649F6627B00DA11D45
:101B3000661F829F2227B00DA11D621F739FB00DEB
:101B4000A11D621F839FA00D611D221F749F33275B
:101B5000A00D611D231F849F600D211D822F762FF4
:101B60006A2F11249F5750408AF0E1F088234AF0F1
:101B7000EE0FFF1FBB1F661F771F881F915050403D
:101B8000A9F79E3F510570F05CCFA6CF5F3FECF305
:101B9000983EDCF3869577956795B795F795E79529
:101BA0009F5FC1F7FE2B880F911D9695879597F93A
:061BB0000895F894FFCF38
:0C1BB600010053494E452E5741560000D7
:00000001FF
