:1000000010C01FC01EC01DC01CC01BC01AC019C01C
:1000100018C017C016C015C014C013C012C011C03C
:1000200010C011241FBECFE5D1E0DEBFCDBF20E060
:10003000A0E6B0E001C01D92A836B207E1F7DED01D
:100040009FC1DECFFC019081862F809598239083FD
:10005000ABECB0E01197F1F700C00000908140FFD9
:1000600002C0962B01C098239083ABECB0E01197AF
:10007000F1F700C00000908141FF02C0962B01C043
:1000800098239083ABECB0E01197F1F700C000002B
:10009000908142FF02C0962B01C098239083ABEC65
:1000A000B0E01197F1F700C00000908143FF02C05B
:1000B000962B01C098239083ABECB0E01197F1F739
:1000C00000C00000908144FF02C0962B01C098231D
:1000D0009083ABECB0E01197F1F700C00000908185
:1000E00045FF02C0962B01C098239083ABECB0E093
:1000F0001197F1F700C00000908146FF02C0962BD7
:1001000001C098239083ABECB0E01197F1F700C0E9
:10011000000047FF04C08081862B808303C090814C
:10012000982390838BEC90E00197F1F700C00000DA
:100130008081862B8083ABECB0E01197F1F700C093
:1001400000008BEC90E00197F1F700C000000895EB
:1001500089E887B9369A3699FECF84B195B19093E4
:10016000670080936600809166009091670097FF1A
:1001700004C0109267001092660081E987B9369A30
:100180003699FECF84B195B14497909365008093E2
:100190006400809164009091650097FF04C0109204
:1001A0006500109264008BE987B9369A3699FECFC4
:1001B00084B195B190936300809362008091620056
:1001C0009091630097FF04C0109263001092620048
:1001D0008FE987B9369A3699FECF84B195B190935D
:1001E000610080936000809160009091610097FFB2
:1001F00004C01092610010926000089580E886BDEE
:1002000016BCC09AB89AC19AB99A87B987E886B9D4
:100210009FDF60916600709167008091640090910B
:100220006500209162003091630040916000509120
:100230006100860F971FC49738F0CA01820F931F81
:10024000C49710F0C19A01C0C19841E061E088E311
:1002500090E0F8DE8FE19EE40197F1F700C0000026
:1002600042E061E088E390E0EDDE8FE19EE40197FB
:10027000F1F700C0000043E061E088E390E0E2DED7
:100280008FE19EE40197F1F700C0000044E061E0D7
:1002900088E390E0D7DE409166005091670061E00E
:1002A00088E390E0CFDE8FE19EE40197F1F700C094
:1002B00000008091660090916700492F61E088E31B
:1002C00090E0C0DE8FE19EE40197F1F700C00000EE
:1002D000409164005091650061E088E390E0B2DEF7
:1002E0008FE19EE40197F1F700C000008091640067
:1002F00090916500492F61E088E390E0A3DE8FE1F3
:100300009EE40197F1F700C0000040916200509117
:10031000630061E088E390E095DE8FE19EE4019761
:10032000F1F700C000008091620090916300492FB6
:1003300061E088E390E086DE8FE19EE40197F1F7CB
:1003400000C00000409160005091610061E088E3CE
:1003500090E078DE8FE19EE40197F1F700C00000A5
:100360008091600090916100492F61E088E390E006
:1003700069DE8FE19EE40197F1F700C0000048CFED
:04038000F894FFCF1F
:00000001FF
