:1000000010C017C016C015C014C013C012C011C054
:1000100010C00FC00EC00DC00CC00BC00AC009C07C
:1000200008C011241FBECFE5D1E0DEBFCDBF88D010
:10003000C1C0E6CFFC019081862F809598239083E4
:10004000A3E2BEE41197F1F700C00000908140FFE9
:1000500002C0962B01C098239083A3E2BEE41197BF
:10006000F1F700C00000908141FF02C0962B01C053
:1000700098239083A3E2BEE41197F1F700C000003B
:10008000908142FF02C0962B01C098239083A3E287
:10009000BEE41197F1F700C00000908143FF02C059
:1000A000962B01C098239083A3E2BEE41197F1F749
:1000B00000C00000908144FF02C0962B01C098232D
:1000C0009083A3E2BEE41197F1F700C00000908195
:1000D00045FF02C0962B01C098239083A3E2BEE4A3
:1000E0001197F1F700C00000908146FF02C0962BE7
:1000F00001C098239083A3E2BEE41197F1F700C0FA
:10010000000047FF04C08081862B808303C090815C
:100110009823908383E29EE40197F1F700C00000EA
:100120008081862B8083A3E2BEE41197F1F700C0A3
:10013000000083E29EE40197F1F700C000000895FB
:1001400080E886BD16BCC09AB89AC19AB99A87B998
:1001500087E886B9E9E8F1E9ABE9BFE9E7B9369A9A
:100160003699FECF44B155B1F7B9369A3699FECFDC
:1001700064B175B1A7B9369A3699FECF84B195B1FD
:10018000B7B9369A3699FECF24B135B1460F571F0D
:100190004E33510538F0820F931F8A35924010F08C
:1001A000C19A01C0C1988FE097E20197F1F700C0B2
:0801B0000000D4CFF894FFCF4A
:00000001FF
