:100000000C9456000C946B000C946B000C946B00D9
:100010000C946B000C946B000C946B000C946B00B4
:100020000C946B000C946B000C946B000C946B00A4
:100030000C946B000C946B000C946B000C946B0094
:100040000C946B000C946B000C946B000C946B0084
:100050000C946B000C946B000C946B000C946B0074
:100060000C946B000C946B000C946B000C946B0064
:100070000C946B000C946B000C946B000C946B0054
:100080000C946B000C946B000C946B000C946B0044
:100090000C946B000C946B000C946B000C946B0034
:1000A0000C946B000C946B000C946B0011241FBE1D
:1000B000CFEFCDBFD7E2DEBF11E2A0E0B0E2EAE4CD
:1000C000F1E002C005900D92A030B107D9F70E946F
:1000D0006D000C94A3000C94000088E180935500FF
:1000E00080E1809350008091510084FFFCCF88ED27
:1000F00084BF84E080934000809101038F79806405
:100100008093010380910203867E886080930203BE
:1001100080910003827F85608093000380E090E0FF
:10012000FC01EE0FFF1FE050F04E20813181209343
:1001300018033093190301968F77992725E82A959C
:0A014000F1F70000EDCFF894FFCFB7
:10014A00FF076308C7082B098E09F009510AB00A8C
:10015A000E0B6A0BC30B1B0C700CC20C110D5D0D40
:10016A00A60DEB0D2D0E6B0EA50EDA0E0C0F390F28
:10017A00620F860FA50FC00FD60FE70FF40FFB0F04
:10018A00FE0FFB0FF40FE70FD60FC00FA50F860F58
:10019A00620F390F0C0FDA0EA50E6B0E2D0EEB0D3A
:1001AA00A60D5D0D110DC20C700C1B0CC30B6A0B56
:1001BA000E0BB00A510AF0098E092B09C708630809
:1001CA00FF079B073707D30670060E06AD054E05D7
:1001DA00F00494043B04E3038E033C03ED02A10202
:1001EA0058021302D101930159012401F200C500FA
:1001FA009C00780059003E00280017000A000300FE
:10020A00000003000A00170028003E005900780089
:10021A009C00C500F200240159019301D101130287
:10022A005802A102ED023C038E03E3033B0494044B
:10023A00F0044E05AD050E067006D30637079B0778
:00000001FF
